:020000040000fa
:080000000002040000000000f2
:020000040000fa
:100008009a0200009a0200009a0200009a02000078
:100018009a0200009a0200009a0200009a02000068
:100028009a0200009a0200009a0200009a02000058
:100038009a0200009a0200009a0200009a02000048
:020000040000fa
:020000040000fa
:100400000f8020000e7f22000e01880000000000f7
:10041000000020000000e000020032000001200087
:10042000200288000c00070040f920000100200095
:1004300011000700000020000000e0000200320070
:100440000000020000000000fa07020000000000a7
:100450000040da000000fe004440a900a020200077
:100460000000e0000300320000002000a00188002e
:100470004440a80000000600910188008000780038
:100480000000eb0015003700e280400032a0b4000d
:100490009101ba00e280400032a0b4009102ba009b
:1004a000e280400032a0b4000002eb00472bde00e7
:1004b000f507b200602ce10004003a000059eb009f
:1004c0008301e900fdff3e00040037006128e100e0
:1004d000010032000082eb00040007001101ba00a5
:1004e0000200e000e8ff3a00000006003159ba00bf
:1004f0008301e9000c0032002159ba008301e900b0
:10050000080032000400e00003003a00e2804000ee
:1005100032a0b400f5ff370011d9ba008301e90019
:10052000faff3a008100e800e180400032a0b40008
:10053000000006000040da000000fe0003f0a20008
:10054000889fbe008a9fbe008c1f7800fe000700b7
:10055000050133006450e1004f0032006420e100e7
:100560005200320003826c0007003b000905d000f6
:100570000306d000820f54000c065d000200390013
:100580000200320089017800030678008582550058
:1005900004003d000003fd008103fd008502ea0028
:1005a0008b854200840f720002003b006000100047
:1005b000e08018006011b8000005eb007a28e10027
:1005c0000a00390006007800c75ddd00f707b200b9
:1005d000878075002d003700828171000a01780044
:1005e000610560008180d1000080d3008502e900b0
:1005f000f9ff3b00060440008784480002003b00ee
:1006000060041400e0841c000988a3000700320085
:100610008a81710082817100610164008904d100c6
:100620000884d3008b05e800170037000978a30081
:1006300013003a000b00e000130034008b05e900c2
:100640000804440089844c000a4474000978a3001b
:100650000d003a000b00e000070034008b05e900b4
:100660000804440089844c0001003a000b0020007b
:100670000978a300f7ff32000001eb000200370009
:10068000828171000a017800740007000cf0a70055
:1006900001f0a000bd0037006420e10002003a0034
:1006a000838f6c00bd0033000801be000200be0055
:1006b000b6003700889fbe008a9fbe008c1f78005e
:1006c000a1000700a800330003866c006450e1001d
:1006d0002e0032006420e100330032006150e1005e
:1006e0002f0032006120e100310032008585550085
:1006f000eb07b000090020000804200005003700c7
:100700000804440089844c000a00310006034300b9
:1007100087834b000001530081815b00f8ff3300a9
:100720000203be000800a0000804440089844c00b5
:10073000f6ff3900c639dd00830173000100320085
:10074000130020008904d1000884d3000998a30075
:10075000050032000800a7000300a0008904d100b2
:100760000884d3008b05e8008904d1000884d300f5
:100770000001eb000281d2003800070001f0a10067
:100780000cf0a70001f0a000800037006420e10019
:10079000820032000801be000200be00f7ff3700f1
:1007a0006120e1007d0032006000b800f3ff3700f7
:1007b0000000200001f82700f0ff3700140020009f
:1007c000ad003700f4ff2f00ab0037000001be0082
:1007d000480007000470a70003f0a1006509b100fc
:1007e000160032000d0035006828e10006003500d3
:1007f000f0ff2f00f1ff27000300e00013003b0093
:100800000100280000000500000040008180480031
:100810008502e900fcff3a0008003700f88f42002b
:1008200002003c008000eb00000005008100d100c8
:100830000080d3008502e800fcff3a000300e000de
:1008400002003b0060001000e0801800000006007d
:100850004f89de0082017800a2003700810020006d
:10086000618055000b003d000b00200061fe2f0051
:100870000100e1001d00340082817100610164000b
:100880008904d1000884d3000000e800faff3a0090
:10089000710020006100640003007000020060002d
:1008a0000900320061044400e0844c000988a5007e
:1008b000050032008b05e8006808e10002003a00fc
:1008c0008904d1000884d300f20f20000258e1000f
:1008d00005003d00c75ddd00f907b20089807500a5
:1008e00008007800000006000bf827008b00780055
:1008f00000000500c70ade00f107b200f50fb200e4
:1009000008003200e1cf4200020032000170a00076
:1009100024000500810f700001003200040805006a
:1009200044000500810f700002003a001400050029
:100930008502e9000000400081c04800fcff3b0048
:100940000170a000240005000004be00e9ff0700bc
:100950000003be000405be000200be00e5ff070064
:10096000844f7500000006000200be006450e100e4
:10097000050036006420e100020036000968a3008b
:1009800001003a000800be000160a0004f06780098
:100990004f05be004f04be0000000600f0ff2f0010
:1009a000f1ff2700f9ff3700889fbe008a9fbe0035
:1009b0008c1f7800e4ff0700ebff330003866c0018
:1009c0006450e100240032006420e100270032007e
:1009d0006150e100220032006120e100210032007c
:1009e0008b854200eb07b1000134b800003ab80033
:1009f0000804420089844a00013ab8000030b80077
:100a00008880400009014a000400330000004000d3
:100a100081804800020149008b05e900c909dd0019
:100a2000830170000100320013002000c814de00b2
:100a30004814dd004709de001200b200c808de00dd
:100a40000884700085ff070001f0a1000cf0a700ea
:100a500001f0a000cdff37006120e100cfff3200a0
:100a60000801be000200be00f7ff37006150e10040
:100a7000fcff3a00c9ff3700889fbe008a9fbe0076
:100a8000841f7800b0ff07004f007800110033008a
:100a9000f0ff2f00838f6c0006003b00040565000b
:100aa0000a00a7000800370009f0a6001000200087
:100ab00008003700820f5400838f5c000300390068
:100ac0001000200001003e000000200009f0a700f7
:100ad0000000ea004f05be004f04be000000e00029
:100ae00000000600881f7800030478000300e0007f
:100af00007003d0060001000e08018006001190050
:100b0000e081190002003b0001f02d0003003700d6
:100b10000400070008f0a70001f0a0004f047800cf
:100b200000000600889fbe008a9fbe000082700001
:100b30000402710004827100260032000004be002d
:100b40000200be006011b8006b0920009502200071
:100b50000182cf000a0039000541b1000082cf00b8
:100b6000070039000541b1000982cf0004003900b7
:100b70000541b1000882cf00010039000541b100f4
:100b800005425200120032000a003b0082817100cf
:100b9000610164008100d1000080d3008984d3000a
:100ba0000884d3008b05e8000442e800f7ff3a0010
:100bb000070037000804440089844c000000480006
:100bc000818048008b05e9000442e900f9ff3a0002
:100bd00022ff07004f05be004f04be0000000600c4
:020000040000fa
:100be00000000000c9000000920100005b0200004c
:100bf00024030000ed030000b60400007e050000a1
:100c00004706000010070000d9070000a1080000f7
:100c10006a090000320a0000fb0a0000c30b000052
:100c20008b0c0000530d00001b0e0000e30e0000b3
:100c3000ab0f00007210000039110000001200001c
:100c4000c71200008e130000551400001b15000091
:100c5000e1150000a71600006d1700003318000012
:100c6000f8180000bd190000821a0000461b0000a1
:100c70000b1c0000cf1c0000931d0000561e00003e
:100c8000191f0000dc1f00009f20000061210000f0
:100c900023220000e4220000a623000067240000b5
:100ca00027250000e7250000a72600006727000091
:100cb00026280000e5280000a3290000612a000082
:100cc0001e2b0000db2b0000982c0000542d000090
:100cd000102e0000cc2e0000862f000041300000b6
:100ce000fb300000b43100006d32000026330000fc
:100cf000de330000963400004d350000033600005e
:100d0000b93600006f37000024380000d8380000e2
:100d10008c3900003f3a0000f23a0000a43b00008a
:100d2000563c0000073d0000b73d0000673e000054
:100d3000163f0000c53f0000734000002041000046
:100d4000cd4100007942000025430000d04300005f
:100d50007a44000023450000cc45000074460000a2
:100d60001c470000c3470000694800000e4900000e
:100d7000b3490000574a0000fa4a00009d4b0000aa
:100d80003f4c0000e04c0000804d0000204e000071
:100d9000bf4e00005d4f0000fa4f0000975000006a
:100da00033510000ce510000685200000153000092
:100db0009a53000032540000c95400005f550000ef
:100dc000f4550000895600001d570000b057000080
:100dd00042580000d358000063590000f359000046
:100de000815a00000f5b00009c5b0000285c000043
:100df000b35c00003d5d0000c65d00004f5e00007a
:100e0000d65e00005d5f0000e25f000067600000ea
:100e1000eb6000006e610000f06100007162000094
:100e2000f162000070630000ee6300006b6400007c
:100e3000e764000062650000dd65000056660000a2
:100e4000ce66000045670000bc6700003168000006
:100e5000a5680000196900008b690000fc690000aa
:100e60006c6a0000db6a00004a6b0000b76b000090
:100e7000236c00008e6c0000f86c0000616d0000b7
:100e8000c96d0000306e0000956e0000fa6e000023
:100e90005e6f0000c06f00002270000082700000d2
:100ea000e1700000407100009d710000f9710000c8
:100eb00054720000ae720000067300005e73000002
:100ec000b57300000a7400005e740000b174000085
:100ed0000375000054750000a4750000f375000050
:100ee000407600008d760000d87600002277000062
:100ef0006b770000b3770000f97700003f780000bf
:100f000083780000c6780000087900004979000065
:100f100089790000c7790000047a0000417a000056
:100f20007c7a0000b57a0000ee7a0000257b000094
:100f30005c7b0000917b0000c47b0000f77b00001d
:100f4000297c0000597c0000887c0000b67c0000f1
:100f5000e27c00000e7d0000387d0000617d000015
:100f6000897d0000b07d0000d57d0000f97d000086
:100f70001c7e00003e7e00005e7e00007e7e000043
:100f80009c7e0000b97e0000d47e0000ef7e000051
:100f9000087f0000207f0000377f00004c7f0000aa
:100fa000617f0000747f0000867f0000967f000054
:100fb000a67f0000b47f0000c17f0000cd7f00004d
:100fc000d77f0000e07f0000e87f0000ef7f000097
:100fd000f57f0000f97f0000fc7f0000fe7f00002d
:100fe000000100000600000000400000008000003a
:040ff00000c000003d
:020000040000fa
:100ff4000000fa000000eb00dc0107000002be0064
:101004006011b800f05f2000218023009e010700da
:1010140000002400d50107000002be0002002000e9
:1010240003f02300f05f20002180230096010700d5
:1010340000002c00cd0107000002be0002002000c9
:1010440003f02b00f05f2000218023008e010700b5
:10105400f0ff2700c50107000002be0002002000c7
:1010640003f82300f05f200021802300860107009d
:1010740000002800bd0107000002be00020020009d
:1010840003f82b00f05f2000218023007e0107007d
:101094000000eb00bf0107000002be006011b800b1
:1010a400f05f200021802300770107000000240066
:1010b400b80107000002be000200200003f0230074
:1010c400f05f2000218023006f01070000002c0046
:1010d400b00107000002be000200200003f02b0054
:1010e400f05f20002180230067010700f0ff270044
:1010f400a80107000002be000200200003f823003c
:10110400f05f2000218023005f0107000000280019
:10111400a00107000002be000200200003f82b001b
:10112400f05f200021802300570107000000eb003e
:10113400a2010700800078000000eb008101070095
:10114400f0ff23009d010700800078000000eb0001
:101154007c0107000000240098010700800078004b
:10116400100020007701070010002c0093010700f5
:10117400800078000000eb007201070000002c00e2
:101184008e010700800078000080eb006d010700ed
:101194006000b8009d010700800078000000eb00ab
:1011a400680107000000200001f0230097010700f8
:1011b4008000780000002400620107000000200085
:1011c40001f823009101070080007800f0ff270058
:1011d4005c0107000000200001f02b008b010700d8
:1011e4008000780000002c00560107000000200059
:1011f40001f82b008501070080007800000028001a
:10120400500107006000b800ab01070080007800bf
:101214000000eb004b0107000000200001f0230058
:10122400a5010700800078000000240045010700a4
:101234000000200001f823009f01070080007800cf
:10124400f0ff27003f0107000000200001f02b0001
:10125400990107008000780000002c003901070084
:101264000000200001f82b009301070080007800a3
:1012740000002800330107000000eb00b90107005b
:10128400800078000000eb002e0107001000200011
:10129400b401070080007800f0ff2700290107004f
:1012a40020002000af01070080007800f0ff270035
:1012b400240107000080eb00aa01070080007800e9
:1012c400000028001f010700e0ff2f00a501070010
:1012d40080007800000028001a010700f1ff2700b1
:1012e400f0ff2700d402070080007800e0ff270009
:1012f40014010700f1ff270000002800ce020700b8
:1013040080007800100028000e010700010028006a
:1013140000002800c80207008000780000002800b0
:10132400080107008000eb000000eb00c202070088
:10133400800078000000eb000201070001002c008f
:1013440000002400bc0207008000780000002e008a
:10135400fc0007008000eb000000eb00bb0207006c
:1013640080007800f0ff2700f60007008000eb0003
:1013740010002000b502070080007800f0ff27006d
:10138400f00007008000eb000080eb00af020700d4
:101394008000780000002800ea000700010028000f
:1013a40000002400a90207008000780000002c003f
:1013b400e4000700f1ff270000002c00a30207004f
:1013c4008000780000002c00de0007008000eb00a5
:1013d4000000eb00c1020700800078000000eb0071
:1013e400d8000700c1f92f0040062000bb02070007
:1013f400800078000000eb00d2000700813e20004e
:1014040000d02700b502070080007800f0ff270015
:10141400cc00070081c12f0000302800af02070074
:101424008000780000002800c60007000000eb00e0
:10143400b7020700800078000000eb00c10007003d
:1014440000002c00b2020700800078000000240095
:10145400bc00070000002c00ad02070080007800eb
:1014640000002400b7000700000022004f0107001d
:101474008000780000002400b2000700803e2000b5
:101484004a0107008000780000662100ad000700d3
:101494000000eb004501070080007800600b20008d
:1014a400a80007000000eb0063010700800078003b
:1014b4000000eb00a3000700505521005e01070067
:1014c40080007800e0ff23009e0007000000220057
:1014d400590107008000780010a825009900070032
:1014e400b0aa2200540107008000780080ed260095
:1014f40094000700f0ff23004f01070080007800ec
:10150400e0ff27008f000700000024004a010700c5
:1015140080007800e0ff27008a0007001000240004
:101524004501070080007800e0ff270085000700e0
:1015340050552500400107008000780070ed26001a
:1015440080000700b0aa26003b0107008000780055
:10155400b0ff23007b000700f0ff270036010700df
:10156400800078000000eb007600070000002800ef
:1015740031010700800078000000eb0071000700d3
:10158400100028002c01070080007800d0ff2f00f5
:101594006c000700505529002701070080007800df
:1015a40020002c0067000700b0aa2a0022010700cf
:1015b400800078008012290062000700f0ff2b00f1
:1015c4001d01070080007800200028005d0007004e
:1015d40000002c001801070080007800200028007b
:1015e4005800070010002c00130107008000780049
:1015f400200028005300070050552d000e0107005d
:1016040080007800901229004e000700b0aa2e0036
:10161400090107008000780050002c0049000700f1
:101624000080eb0004010700800078000000eb005c
:10163400440007000000eb00a301070080007800cd
:10164400e0ff27003f000700000024009e01070080
:10165400800078000000eb003a000700000028003a
:101664009901070080007800200028003500070059
:10167400f0ff2b0094010700800078000000eb00cd
:1016840030000700ffff37001400fa00881f7800bd
:101694004007980051079800620798007307980064
:1016a400040f9800150f98004e019000de01900081
:1016b4006e009000fe009000a0fb0700008fbe00ab
:1016c4004e019000de0190006e009000fe0090003c
:1016d40099fb0700200798003107980018c0b30051
:1016e4001e01be000e0890009e08900034fc070006
:1016f4000000e00001003c000044eb000804e000ae
:10170400010032000000000018c0b3002e01900058
:10171400be0190000e0890009e08900026fc070071
:101724000000e000010035000044eb000804e00084
:1017340001003200000000004f0478000080fa002d
:10174400000006000400fa00000f7800110798005a
:101754001e0090009e007800808f5000010032002f
:10176400000000000080fa00000006000200fa00f9
:10177400000f78001e007800cf80de0033fc0700e5
:101784000200200003702400c9fb07000080fa0057
:10179400000006000200fa00000f78001e00780026
:1017a400cf80de0029fc0700020020000370240023
:1017b400bffb07000080fa00000006000400fa00e6
:1017c400100798000000eb00000f78009e009000c6
:1017d400f0ff2300808f500003003400100020002d
:1017e400000f7800060037009e00900010002c00c7
:1017f400808f500002003d000080eb00000f780055
:101804001e0078000080fa00000006000600fa00be
:10181400881f7800100798002107980018c0b300ab
:1018240092e02f00f3f723001e009000ae0090001a
:10183400e3fb07000000e00001003c000044eb0073
:101844000804e00003003200f0ff2700000f7800d6
:101854001500370018c0b3000200200003f82b0065
:101864001e009000ae009000d3fb07000000e000d3
:10187400010035000044eb000804e00003003200de
:1018840000002800000f7800070037000200200045
:10189400037024001e009000ae00900041fc07007d
:1018a400c9fb0700000f78001e0078004f04780081
:1018b4000080fa00000006000600fa00881f780085
:1018c400100798002107980018c0b30092e02f0079
:1018d400f3f723001e009000ae009000b8fb070051
:1018e4000000e00001003c000044eb000804e000bc
:1018f40003003200f0ff2700000f780015003700c6
:1019040018c0b3000200200003f82b001e00900052
:10191400ae009000a8fb07000000e00001003500c5
:101924000044eb000804e00003003200000028003b
:10193400000f780007003700020020000370240025
:101944001e009000ae00900016fc07009efb0700ee
:10195400000f78001e0078004f0478000080fa0021
:10196400000006000400fa00100798000000eb00d5
:10197400000f78001e0090000000e0000300340017
:10198400f0ff2700000f7800050037001e009000cc
:101994000000e00002003d0000002800000f780075
:1019a4001e0078000080fa00000006000800fa001b
:1019b400300798003e0090000000e00003003d0066
:1019c4000080eb00000f780018003700f0ff2300c0
:1019d400000f780000002200100798001000370064
:1019e4009e0078001e00780013010700200798006d
:1019f400ae0090003e009000808f50000300340041
:101a04001e0090001e0f1000020037001e00900000
:101a14001e0f40001e0090000080d10010079800a7
:101a24001e0090000000e000edff3c001e00780066
:101a34000080fa00000006000a00fa00400798003f
:101a4400a03f8400ce009000808f5000040031003d
:101a54004e00900025000700000f7800200037009a
:101a6400b03f8400ce009000808f50000900310008
:101a7400b13f84004e009000008050000000e90057
:101a8400100798001e00900018000700000f78004f
:101a940013003700c03f8400ce009000808f5000b8
:101aa40008003100b03f8400ce0090000080500058
:101ab400200798002e0090000c000700000fea0099
:101ac400070037004e0090000080ea008180ea00a1
:101ad400300798003e00900004000700000fea0061
:101ae4001e0078000080fa00000006001200fa00d0
:101af400000f98008e089000f0ff2300808f5000a4
:101b040032003e00903f84008e0890000008de0002
:101b1400200798002e00900080004000005f2800fd
:101b24000080400090007800310798002e0090005b
:101b34000000e80040079800803f8400ce00900039
:101b4400808f500003003a00f0ff27001007980030
:101b5400060037004e00900080004000005f28001f
:101b6400008040009000780011079800903f8400a6
:101b7400110020000008dd0050079800903f840009
:101b8400ae0090000008dd008e0890000080500038
:101b9400de009000ad000700600798009e009000f2
:101ba4003e00900000805000800078006e0090009d
:101bb400a100070070079800fe0090003e0090000e
:101bc40000804000000f780002003700f0ff27007b
:101bd400000f78001e0078000080fa000000060064
:101be4000a00fa0040079800a03f8400ce0090004d
:101bf400808f5000040031004e0090002500070043
:101c0400000f780020003700b03f8400ce00900021
:101c1400808f500009003100b13f84004e009000d5
:101c2400008050000000e900100798001e0090009a
:101c340018000700000f780013003700c03f84002d
:101c4400ce009000808f500008003100b03f840027
:101c5400ce00900000805000200798002e009000d5
:101c64000c000700000fea00070037004e00900048
:101c74000080ea008180ea00300798003e0090006e
:101c840004000700000fea001e0078000080fa003c
:101c9400000006000400fa0010079800903f84003a
:101ca4009e0090000008de00000f78001e007800ff
:101cb40080004000005f2800008040001000780091
:101cc4000080fa00000006000600fa0020079800d1
:101cd400a03f8400ae009000008f40001e007800fa
:101ce40055ff0700100798001e0090000080fa00be
:101cf400000006000600fa0020079800a03f8400b8
:101d0400ae009000008f40001e007800b4ff070072
:101d1400100798001e0090000080fa0000000600e2
:101d24000800fa00881f7800300798003e009000f1
:101d340041ff0700100798003e009000e2ff0700f3
:101d4400200798001e00900071000700000478002e
:101d54002e0090006e000700800f54000b00350029
:101d64009e0090002e009000008068000000e000bb
:101d740003003d0000002800000f78000700370032
:101d8400f0ff2700000f780004003700ae00900039
:101d94001e0090002d000700000f78001e00780040
:101da4004f0478000080fa00000006000800fa00e2
:101db400881f7800300798003e00900088ff0700d5
:101dc400100798003e009000caff07002007980003
:101dd4001e0090004e000700000478002e009000c2
:101de4004b000700800f54000b0035009e0090004c
:101df4002e009000008068000000e00003003d0019
:101e040000002800000f780007003700f0ff2700cb
:101e1400000f780004003700ae0090001e00900010
:101e24000a000700000f78001e0078004f047800b5
:101e34000080fa00000006000181b9000281d2008e
:101e44008381d200030078000000060000017800be
:101e5400810178008a0f020000000000000278006f
:101e6400030078008a0f020000000000800278005e
:101e740005a0e600500f0400000000000002eb0083
:101e84000320e700500f0400000000000200780067
:101e940083007800620f04000000000004002800a2
:101ea400040161008481610003016900f0ff2700df
:101eb4008000eb000190e70000002800000006000d
:101ec40001017800800278000002eb00c1aade0064
:101ed40011000900422ad800000006000101400058
:101ee4004240af007c0f04000000000002007800b4
:101ef4000000060000f0a700860f040000000000a8
:101f0400f0ff270000000600000028000000060083
:101f140000f0a600000006008080ea000100e8004e
:041f240000000600b3
:020000040000fa
:041f280000000000b5
:00000001FF
